:10000000B8C00000D7C00000D5C00000D3C00000B9
:10001000D1C00000CFC00000CDC00000CBC00000A8
:10002000C9C00000C7C00000C5C00000C3C00000B8
:10003000C1C00000BFC00000BDC00000BBC00000C8
:10004000B9C000000C94080E0C94350E0C94620E8E
:100050000C94DB0DAFC00000ADC00000ABC00000D1
:10006000A9C00000A7C00000A5C00000A3C00000F8
:10007000A1C000009FC000009DC000009BC0000008
:100080000C94BC0E0C94E90E0C94160F0C948F0E6D
:1000900091C000008FC000008DC000008BC0000028
:1000A00089C0000087C000000C94700F0C949D0F55
:1000B0000C94CA0F0C94430F7DC000000C942410C4
:1000C0000C9451100C947E100C94F70F73C0000028
:1000D00071C000006FC000006DC000006BC0000068
:1000E00069C000000C943C090C9446090C94320938
:1000F0000C94B1080C94DC080C9450090C948608FC
:100100000C94070957C0000055C0000053C0000000
:1001100051C000004FC000000C9464090C945A09AF
:100120000C946E090C9478090C9482090C948C0937
:100130000C9496090906300624063D062406FC05A3
:10014000160624062406240624062406D0052406C2
:10015000240624062406240624065C062406240617
:10016000950604030302020100FFFEFDFCFBF9F704
:10017000F4EF11241FBECFEFD1E8DEBFCDBF00E00A
:100180000CBF12E0A0E0B2E0ECE0F6E200E00BBF52
:1001900002C007900D92A430B107D9F722E5A4E080
:1001A000B2E001C01D92A13FB207E1F70E94D91150
:1001B0000C94041325CF0E94830D20910802222362
:1001C000D9F04091F05230E020910802642F732F53
:1001D0000E940212FB018FEF9FEF642F732F0E948A
:1001E000021230E0629FC001639F900D729F900DDC
:1001F00011248E0F9F1F08956091F05270E00E94AD
:100200000212CB0108950E94880D0E94AC0D10923D
:100210000402109205021092060210920702109238
:100220000A02109209020C94B90D0E94960D1092C8
:1002300008020895E8DFF9DF0C949D0D0F931F93DA
:10024000CF93DF93EC010E94830D8C01BE0180E00F
:1002500090E02091F05230E040E050E00E94F31135
:10026000DC01CB01A80160E070E0480F591F6A1F54
:100270007B1F409304025093050260930602709323
:1002800007024091040250910502609106027091AC
:100290000702AB01662777274093040250930502BB
:1002A0006093060270930702409104025091050288
:1002B00060910602709107024115510561057105B3
:1002C00091F04091040250910502609106027091F4
:1002D00007020196080F191F10930A0200930902E2
:1002E0000E94880D08C0080F191F10930A0200937E
:1002F00009020E948F0D8091090290910A028436B2
:10030000910530F48C599F4F90930A028093090213
:100310008091090290910A020E94A10DDF91CF9174
:100320001F910F910895109208020E94BB0D8093B7
:10033000F05208958091040290910502A091060266
:10034000B09107020097A105B105C9F080910402A0
:1003500090910502A0910602B09107020197A109B0
:10036000B1098093040290930502A0930602B09312
:1003700007020097A105B10511F40E948F0D80912D
:1003800008028F5F809308029091F052891748F01D
:1003900010920802E0910B02F0910C02309709F0E4
:1003A000199508950E94880DE0910D02F0910E02BA
:1003B000309709F01995089590930C0280930B02E1
:1003C000089590930E0280930D0208950895CF939F
:1003D000DF939C01C6EFD3E081E7DE011D928A9591
:1003E000E9F7D9011796ED91FC91189791E7DE0195
:1003F00001900D929A95E1F7888599850197C1F54D
:1004000080910004833411F08C3491F580E489B933
:10041000A29A7298D9011796ED91FC911897808154
:100420008E5FE80FF11D8081E6EFF3E0808F408161
:1004300050E04B5051094731510519F044365105F0
:10044000B9F460910F0270911002A0E0B4E0FB01DA
:10045000E959FB4F80E090E02D912193019684179C
:100460009507D4F3460F571F5093100240930F0285
:10047000DF91CF910895089586E00C94700C089553
:10048000CF93DF9300D000D0CDB7DEB744D036D0C5
:10049000B9D18AD58111FFCF789481E090E09A8319
:1004A00089838EEF9AEC9C838B838BE08D831E82F5
:1004B000BE016F5F7F4F83E50E949F0ABE016D5FA3
:1004C0007F4F80E50E949F0ABE016B5F7F4F80E0F7
:1004D0000E949F0ABE016A5F7F4F84E00E949F0ACC
:1004E00062E080E00E94CB0CC7DF26960FB6F8943E
:1004F000DEBF0FBECDBFDF91CF9108958DB18E7F4E
:100500009EB15E9A569AA29A9A9A95609EB9846014
:100510008DB908950895CF93DF931F92CDB7DEB7BD
:100520008FEF80936400809365008FB78983F89480
:1005300089815F9350E85093610050E050936100CF
:100540005F918FBF0F90DF91CF910895CF93DF938D
:100550001F92CDB7DEB79FB79983F8949981823007
:1005600040F4E82FF0E0EC59FF4F6095808168235C
:1005700060839FBF0F90DF91CF910895CF93DF935A
:100580001F92CDB7DEB79FB79983F89499818230D7
:1005900038F4E82FF0E0EC59FF4F8081682B60833E
:1005A0009FBF0F90DF91CF9108958091150288230E
:1005B00019F081E08093C25208951F93CF93DF9387
:1005C0001F92CDB7DEB780918E5290918F520196D7
:1005D00090938F5280938E528FB78983F8941981AC
:1005E000809114028F3FE9F190E0FC01EE0FFF1FB4
:1005F0009C01220F331F220F331F220F331FE20FE4
:10060000F31FE057FD4A218521112BC0FC01EE0F9D
:10061000FF1F880F991F880F991F880F991FE80FD8
:10062000F91FE057FD4A80819181A281B381209119
:100630008E5230918F522A173B0799F4FFDD80913B
:10064000140290E0FC01EE0FFF1F880F991F880F26
:10065000991F880F991FE80FF91FE057FD4A81E0A5
:1006600081871FBF0F90DF91CF911F9108950F9346
:100670001F93CF93DF93C82F8F3F09F460C0009181
:100680008E5210918F5297DD40918E5250918F5221
:1006900004171507A1F7D0E060E070E0FE01EE0F4F
:1006A000FF1F9E01220F331F220F331F220F331F04
:1006B000E20FF31FE057FD4ABA0155274427A0E097
:1006C000B0E0482B592B6A2B7B2B80819181A28132
:1006D000B381841B950BA60BB70B8F3F2FEF9207AF
:1006E000A2072FE7B20738F59E01220F331F220F12
:1006F000331F220F331FFE01EE0FFF1FE20FF31F08
:10070000E057FD4A218521111BC0009721E0A20777
:10071000B105B0F493DDCE01880F991FCC0FDD1F1A
:10072000CC0FDD1FCC0FDD1FC80FD91FC057DD4A0E
:1007300081E0898705C081E08093C25201C063DDFA
:10074000DF91CF911F910F9108958091C25288231C
:1007500009F457C01092C25280911502882309F4FF
:1007600050C0809113028F3F59F4809112028F3F45
:1007700039F480911402809312028093130215C001
:10078000209114028091120290E0FC01EE0FFF1FF5
:10079000880F991F880F991F880F991FE80FF91F5D
:1007A000E057FD4A2087209312028091140290E0C6
:1007B000FC01EE0FFF1F880F991F880F991F880FEC
:1007C000991FE80FF91FE057FD4A808580931402B6
:1007D0002091120230E0F901EE0FFF1F220F331FAC
:1007E000220F331F220F331FE20FF31FE057FD4A82
:1007F0009FEF90879091150291509093150291115F
:1008000036CF0895109215021092C25210928F5254
:1008100010928E528FEF8093140280931302809374
:100820001202E0E9F2E522EC32E5808715821482BB
:100830003A96E217F307C9F7109211028DED92E094
:10084000BBDD85ED92E0BDDD6ECD08950F931F9366
:10085000CF93DF931F921F92CDB7DEB78FB78A83F6
:10086000F8941A8172DF1FBF1FEF012F37C08FB7B7
:100870008983F89429818091130290E0DC01AA0F0A
:10088000BB1F880F991F880F991F880F991FA80FEA
:10089000B91FA057BD4A18969C9118971496ED91D0
:1008A000FC91159716964D915C91179718961C938D
:1008B000189715961C921E92149717961C921E92CA
:1008C000169719961C92909313029F3F11F4009370
:1008D00012022FBF309711F0CA01199580911302AF
:1008E0008F3F29F60F900F90DF91CF911F910F91BD
:1008F000089580E00895AACF0895CF93DF9386E10D
:1009000092E0B0D0CBE1D2E087E292E09983888395
:10091000BE0186E192E0ADD082EB92E09D838C83B4
:100920006FE172E086E192E0A4D08DE393E09987D5
:10093000888763E272E086E192E09BD0DF91CF91FD
:10094000089560E070E086E192E0B8C008950097F5
:1009500021F0BC0186E192E08CC008958F929F92B5
:10096000AF92BF92CF92DF92EF92FF920F931F93BD
:10097000CF93DF931F92CDB7DEB72FB72983F894BB
:100980008980DC0114962C91222309F456C07A0147
:10099000962E5C01FC0100811181452BE1F00115CF
:1009A000110509F44DC0680101C08901D7011296F3
:1009B0006D917C911397ED91FC91D8018D919C9153
:1009C0001995811109C0F80122813381680121152F
:1009D000310559F735C068010115110599F19110DC
:1009E00031C0D5018D919C9111970817190731F4E9
:1009F000F801828193818D939C9308C0D80112964F
:100A00008D919C911397F60193838283D501129661
:100A10008D919C9113970817190721F41396DC9276
:100A2000CE921297F50184818150848380819181D7
:100A3000892B41F41382128205C000E010E002C04D
:100A400000E010E08FBEC8010F90DF91CF911F91A1
:100A50000F91FF90EF90DF90CF90BF90AF909F905D
:100A60008F900895FC0111821082138212821482E9
:100A70000895CF93DF931F92CDB7DEB7FC018FB7F8
:100A80008983F89499818481811103C07183608383
:100A900006C0A281B38113967C936E9312977383E1
:100AA0006283DB0113961C921E92129784818F5FE2
:100AB00084839FBF0F90DF91CF910895AB0160E0D9
:100AC0004DCF089504C061507109810991096115E4
:100AD000710581059105B9F708950F931F93CF9381
:100AE000809141018F718830A1F481E080934F01A2
:100AF00089E080934201C3E00FE411E0F8018081B6
:100B000080FD07C063E970E080E090E0DBDFC1506A
:100B1000A9F7CF911F910F9108951F93CF93DF9362
:100B20001F92CDB7DEB7182F8091EA528F3051F562
:100B30001F3009F438C11092EE5282EC99E0E1D2F4
:100B40008FB78983F89499817894E9E3F1E0808103
:100B50008D7F80838091EE528823E1F39FBF8FEFDA
:100B600080934F0188E480934E01EDE4F1E08081B1
:100B700084608083183011F0133021F488E0809372
:100B8000EA5211C1812F90E0FC013397E731F10562
:100B900008F05AC08827E656FF4F8F4F0C94291251
:100BA00083E080934201EDE4F1E080818B7F8083DC
:100BB0000E94A91280936D01EEE6F1E080819770AA
:100BC000887F892B80838FEF80934F0180E880930B
:100BD0004E0162E070E080E090E074DFE9E3F1E074
:100BE0008081826080836FE270E080E090E06ADF65
:100BF0008FE08093EA52D7C08091EA52883021F189
:100C000088E08093420162E070E080E090E05ADF8B
:100C10001BC08091EA528830B9F083E08093420192
:100C200062E070E080E090E04DDF0EC08091EA521B
:100C3000883049F018F4863039F409C0863139F02B
:100C4000893111F404C049DFE1E4F1E0A6C089E094
:100C50008093420162E070E080E090E033DFF4CF07
:100C60008091EA52883019F0893071F302C035DF83
:100C7000EBCF84E080934201E7CF8091EA52893044
:100C800041F018F4883071F0DFCF863111F08931EE
:100C9000D9F686E08093420162E070E080E090E067
:100CA00011DFD2CF1ADF86E08093420162E070E06C
:100CB00080E090E007DFC8CF8091EA52883091F061
:100CC00018F48630C9F0C0CF893019F0893109F0A5
:100CD000BBCF86E18093420162E070E080E090E06B
:100CE000F1DEB2CFFADE86E18093420162E070E08D
:100CF00080E090E0E7DEA8CF89E08093420162E0E7
:100D000070E080E090E0DEDE809141018F718093A1
:100D1000EA52893009F047C086E18093420162E0DF
:100D200070E080E090E0CEDE8FCF8091EA52883094
:100D300051F118F4863079F087CF893019F0863177
:100D400051F082CF89E18093420162E070E080E05F
:100D500090E0B8DE79CF89E08093420162E070E0F4
:100D600080E090E0AFDE809141018F718093EA5284
:100D70008930C9F489E18093420162E070E080E04B
:100D800090E0A0DE61CFA9DE89E18093420162E0BC
:100D900070E080E090E096DE57CF80818F71809385
:100DA000EA528F31D1F30F90DF91CF911F910895C7
:100DB000CF93DF938091C352882319F18091EF5232
:100DC00081111FC08091C8039091C903892B41F400
:100DD0008BE8B7DD9093C9038093C803892B89F012
:100DE0001092C352CCE4D1E088818F77888363E08E
:100DF00070E080E090E066DE88818068888386E12C
:100E00008CDE8091C852882341F060E070E084EC71
:100E100092E554DE009709F024D58091EF5282309C
:100E200009F47AD5DF91CF91089504C0615071091A
:100E3000810991096115710581059105B9F7089539
:100E4000FF920F931F93CF93DF9386E066DE863089
:100E5000E1F7E5E5F1E080818F77808310924E0124
:100E60006894FF24F3F8C0E0D0E006E411E0F80154
:100E70009081CC0FDD1FCC0FDD1F9076292F30E045
:100E800036952795329522952F7023273F7023277B
:100E9000C22BD32B62E070E080E090E0C6DFFA94D2
:100EA000F110E5CF83E039DE8FEF80934F0188E4C6
:100EB00080934E01CE010E94AC12DF91CF911F9121
:100EC0000F91FF900895FF920F931F93CF93DF939D
:100ED000F82EC9E3D1E088818D7F888361E471E0D9
:100EE00080E090E0A2DF88818E7F888362E070E0FE
:100EF00080E090E09ADF88818160888366E870E016
:100F000080E090E092DF809141018F71CAE001E4BE
:100F100011E00AC066E870E080E090E086DFF8014A
:100F200080818F71C150C9F18830A1F78093EA5256
:100F300087DF0E94A91280936D01EEE6F1E08081C7
:100F40009770887F892B8083808180628083ECE426
:100F5000F1E080818068808388E480934E018FEF88
:100F600080935601EDE4F1E080818C7F8260808384
:100F7000AAE4B1E08C91807F83608C93808188604B
:100F80008083808184608083F11030D27DD2109282
:100F9000EF521092C35280E001C085E8DF91CF91FB
:100FA0001F910F91FF900895CF92DF92EF92FF92E1
:100FB0000F931F93CF93DF9314BE80E1809335018D
:100FC00080933401809333018093320192DC81114C
:100FD0006DC060E481E0BADAC9E3D1E08881816064
:100FE000888388818D7F88836BEF71E080E090E05B
:100FF0001CDF88818E7F888362E070E080E090E073
:1010000014DF88818160888366E870E080E090E08A
:101010000CDF809141018F71CAE001E411E00BC047
:1010200066E870E080E090E000DFF80180818F7179
:10103000C15009F451C0883099F78093EA528091E9
:101040005C01843909F048C035C00E94A912F8013A
:1010500081938F01EC15FD05C1F7F70120813181E6
:10106000428153816481758186819781AFEF0E94AF
:101070004A12ADEF0E94561221F018F00BEC12E567
:10108000E4CF80EA99E038D081EB99E030D082EC6F
:1010900099E037D032DC8BE854DC9093C90380931D
:1010A000C80384EC92E5DEDC17D517C0C5E815C08F
:1010B000C5E813C081E007DFC82F8111F9CF0F2EDB
:1010C000FBECEF2EF2E5FF2EF02D0F2EF3EDCF2EE1
:1010D000F2E5DF2EF02DC1CFC5E88C2FDF91CF9147
:1010E0001F910F91FF90EF90DF90CF900895909314
:1010F000D1038093D00308959093CF038093CE03C0
:1011000008959093CB038093CA0308951F920F9282
:101110000FB60F9211240BB60F922F933F934F935C
:101120005F936F937F938F939F93AF93BF93EF934F
:10113000FF93E091D003F091D1031995FF91EF91C6
:10114000BF91AF919F918F917F916F915F914F91DF
:101150003F912F910F900BBE0F900FBE0F901F90DD
:1011600018951F920F920FB60F9211240BB60F9283
:101170002F933F934F935F936F937F938F939F939F
:10118000AF93BF93EF93FF93E091CE03F091CF0322
:101190001995FF91EF91BF91AF919F918F917F91A1
:1011A0006F915F914F913F912F910F900BBE0F90D8
:1011B0000FBE0F901F9018951F920F920FB60F92AF
:1011C00011240BB60F922F933F934F935F936F931E
:1011D0007F938F939F93AF93BF93EF93FF93E09190
:1011E000CC03F091CD031995FF91EF91BF91AF9191
:1011F0009F918F917F916F915F914F913F912F912F
:101200000F900BBE0F900FBE0F901F9018951F925E
:101210000F920FB60F9211240BB60F922F933F939C
:101220004F935F936F937F938F939F93AF93BF93EE
:10123000EF93FF93E091CA03F091CB031995FF91CF
:10124000EF91BF91AF919F918F917F916F915F913E
:101250004F913F912F910F900BBE0F900FBE0F90AB
:101260001F9018951F920F920FB60F9211240F9096
:101270000FBE0F901F9018951F920F920FB60F92EE
:1012800011240F900FBE0F901F9018951F920F9270
:101290000FB60F9211240F900FBE0F901F9018954C
:1012A0001F920F920FB60F9211240F900FBE0F9046
:1012B0001F9018951F920F920FB60F9211240F9046
:1012C0000FBE0F901F9018951F920F920FB60F929E
:1012D00011240F900FBE0F901F9018951F920F9220
:1012E0000FB60F9211240F900FBE0F901F901895FC
:1012F0001F920F920FB60F9211240F900FBE0F90F6
:101300001F9018951F920F920FB60F9211240F90F5
:101310000FBE0F901F9018951F920F920FB60F924D
:1013200011240F900FBE0F901F9018951F920F92CF
:101330000FB60F9211240F900FBE0F901F901895AB
:101340001F93CF93DF931F92CDB7DEB78FB78983FB
:10135000F894198119D21FBF0F90DF91CF911F917F
:1013600008951F93CF93DF931F92CDB7DEB78FB74A
:101370008983F8941981F2D21FBF0F90DF91CF912A
:101380001F91089581E08093EE52089585FD03C07A
:10139000982F9F7304C0982F91959F719195E2E6C5
:1013A000F1E02491291754F48491803EB4F0803206
:1013B000B4F48823CCF48F71806216C0E1E7F1E0C9
:1013C000249192178CF48491803E5CF080325CF41E
:1013D000882354F48F71806207C080E205C08FE1DA
:1013E00003C080E201C08FE180680895CF93DF934E
:1013F000CBECD2E584E08C8B83E08D8B2FEF3FEF3D
:101400003F872E873D872C879BE09B8B188E40E083
:1014100058EF6FEF77E0488759876A877B872AE024
:1014200031E0398B288B9AE0998F92E09A8F95E082
:101430009B8F8C8F84E8AADF8F8B81E08A8B1E8A3A
:10144000DF91CF91089585FD02C08F7303C0819510
:101450008F718195E2E6F1E0949189173CF4E3E61F
:10146000F1E021E0949189173CF001C020E0981749
:101470004CF48FEF820F08952F5F3196203191F752
:1014800080E00895822F0895CF93DF93EBECF2E58F
:10149000868580936201878580936301E4E6F1E0AD
:1014A000ABECB2E58D918193EC3631E0F307D1F7E7
:1014B000EBECF2E584858093600185858093610182
:1014C00048E451E0DA018C912289B0E22B9F90012F
:1014D000112420768F79822BDA018C93CFE6D1E02C
:1014E000888195899F70807F892B88832EE631E0E3
:1014F000D9018C919689990F990F990F9870877FD0
:10150000892B8C932881938DB0E19B9FC00111247E
:10151000922F9F70892B8883DA018C9193899F7118
:10152000807E892B8C9387898EDFE5E4F1E09081C2
:10153000907F8F70892B8083DF91CF910895CF9317
:10154000DF938E3441F0893561F4FB018081809313
:10155000E75280E00BC1FB0180818093DF5280E085
:1015600005C19091EA529F3009F4DCC08B3009F438
:10157000C9C080F4EB01823009F484C020F48823D0
:1015800009F446C0D1C0833009F48CC0843009F41A
:101590005AC0CAC0833579F128F48F3451F08035B0
:1015A000E9F0C2C0873509F456C0803F09F48BC00A
:1015B000BBC0FB018081EBECF2E5858B938D981726
:1015C00010F49093E052EFE6F1E080819091E052C8
:1015D0009F70807F892B808380E0C8C0FB01908151
:1015E0008181EBECF2E59687878790936201809387
:1015F000630180E0BBC0FB0190818181EBECF2E5EF
:1016000094878587909360018093610180E0AEC0EC
:101610008091EF5281118AC0888140E058EF6FEFCE
:1016200077E0082E04C076956795579547950A94FC
:10163000D2F740FF7DC0983009F480C088E06DDAB1
:101640008830E1F786C08091EF52811173C08881A4
:10165000811172C08BC0FB019081EBECF2E5938F9E
:101660008589981710F49093E052EFE6F1E08081BD
:10167000282F2F7030E1939FC0011124822B80838B
:1016800080E074C08881CBECD2E58F8B7FDE8F8BBE
:10169000DADEE5E4F1E09081907F8F70892B808322
:1016A00080E064C088818093DD52E8E4F1E020812D
:1016B00030E2839FC00111248076922F9F79892B7D
:1016C000808380E053C0FB01B081A18152814381BE
:1016D0003481258196818781EBECF2E5B083A1838B
:1016E000528343833483258396838783E4E6F1E042
:1016F000ABECB2E58D918193EC3631E0F307D1F795
:1017000080E034C0FB0180818093E152EEE6F1E09D
:101710009081880F880F880F8870977F892B80832E
:1017200080E024C081E822C084EF20C086E81EC08B
:1017300088EE1CC086E81AC088EE18C08093DE527E
:10174000E8E4F1E09081907E8F71892B808380E0C6
:101750000DC088818093DE52E8E4F1E09081907EB4
:101760008F71892B808386E1D8D980E0DF91CF917A
:10177000089504C0615071098109910961157105CD
:1017800081059105B9F70895CF92DF92EF92FF920C
:101790000F931F93CF93DF93E091C803F091C90398
:1017A000309771F4CCE4D1E088818F77888363E04F
:1017B00070E080E090E0DDDF88818068888348C049
:1017C0000091470110917B0111230CF441C0E0808E
:1017D000F18082E0810FEBE8F0E0E81BF109E7011E
:1017E000CE0FDF1FC12ED12CA6014F5F5F4F60E8E7
:1017F00071E0CE01BCD6FE011293D7011896FC937E
:10180000EE931797EC0DFD1D02836091C803709154
:10181000C90384EC92E52DD98BE893D89093C90342
:101820008093C803892B21F481E08093C3520DC0BB
:10183000CCE4D1E088818F77888363E070E080E03A
:1018400090E097DF88818068888380E480934F01EF
:10185000DF91CF911F910F91FF90EF90DF90CF908C
:101860000895CF93DF93AC01FC01C081D181AF819A
:10187000B8858C918093EB52E82FF0E03196EA0F17
:10188000FB1F808131813D3320F4311103C031E0F1
:1018900001C03CE382958695869583702FEF829FE9
:1018A000C0011124389FB001399F700D11249B0194
:1018B000A3E8BDE2D6D596958795929582958F70CF
:1018C00089279F7089278F3F910511F008F08FEFCE
:1018D00080835A834983CE017AD5DF91CF910895D1
:1018E0009091EF52911116C0883029F416D91092B8
:1018F000C35288E008958091C8039091C903892B51
:1019000021F086E10AD986E0089581E08093C352F0
:1019100086E0089586E808951092EF528091D203F0
:10192000833069F028F4882391F0813031F00DC0C4
:10193000853039F0873039F008C087E809C081EE7A
:1019400007C089EE05C085E803C085E801C080E0D6
:101950006091C9527091CA5237C508958091EF5273
:101960008130C1F480914201829586958770809381
:10197000D20382E08093EF528091C8039091C90313
:10198000892B31F489E0C9D881E08093C35208954E
:1019900086E1C3C80895882329F1EDE4F1E0808150
:1019A0008C7F8083808188608083AAE4B1E08C9101
:1019B000807F83608C93808184608083808183704A
:1019C00009F054C080914D0183FF52C080914D01B8
:1019D00082FF50C080914A018F70833009F04CC063
:1019E00080E00895EDE4F1E08081877F8083AAE4C0
:1019F000B1E08C91807F87608C938081846080834C
:101A0000613031F480818C7F8160808385E817C0EC
:101A1000623041F4EDE4F1E080818C7F826080836C
:101A200085E80DC0662311F0633041F4EDE4F1E088
:101A300080818C7F808385E860E001C088EE209102
:101A40004D01237030E070E026173707B9F490910C
:101A50004D0193FD15C090914D0192FD13C09091E1
:101A60004A019F70933079F480E0089585E80895E5
:101A700085E8089585E8089585E8089585E808953E
:101A800085E8089585E80895811124C0FB018081CF
:101A9000803D2CF08FEC8093D3036FE012C0873A27
:101AA0002CF486EA8093D30360E00BC08093D303C9
:101AB000082E000C990B865A9F4F63E070E0B6D455
:101AC0006F5FE5E5F1E08081807F6F70682B608358
:101AD00080E0089584EF089586EA8093D30363ED50
:101AE00073E080E0D1DF61E080E00E94A60260E167
:101AF00080E00E94A60280E008950C949A01089567
:101B00000C94D201089580918400909185000895ED
:101B1000EFE6F0E080818D7F8083B19A0895B19ADD
:101B2000EFE6F0E08081826080830895EFE6F0E0E8
:101B3000808181608083B09A089580E890E082C3BC
:101B40000895E9E8F0E02081922B9083E8E8F0E046
:101B50009081892B80830895CF93DF931F92CDB717
:101B6000DEB78FB78983F89489810F90DF91CF9189
:101B700008958FBF0895CF93DF9380E890E0EBD274
:101B80006DE77DE080E890E0D4D3CFE6D0E08881B7
:101B90008160888360E87DE080E890E0EAD3888116
:101BA0008D7F8883E1E8F0E080818160808388E038
:101BB000DF91CF9108951F920F920FB60F921124CB
:101BC0000BB60F922F933F934F935F936F937F9337
:101BD0008F939F93AF93BF93EF93FF93E091F203A3
:101BE000F091F303309709F01995FF91EF91BF91B0
:101BF000AF919F918F917F916F915F914F913F91A5
:101C00002F910F900BBE0F900FBE0F901F90189545
:101C10001F920F920FB60F9211240BB60F922F93B3
:101C20003F934F935F936F937F938F939F93AF9364
:101C3000BF93EF93FF93E091F003F091F10330979E
:101C400009F01995FF91EF91BF91AF919F918F91FD
:101C50007F916F915F914F913F912F910F900BBEAC
:101C60000F900FBE0F901F9018951F920F920FB6F6
:101C70000F9211240BB60F922F933F934F935F93C4
:101C80006F937F938F939F93AF93BF93EF93FF9344
:101C9000E091EE03F091EF03309709F01995FF9171
:101CA000EF91BF91AF919F918F917F916F915F91D4
:101CB0004F913F912F910F900BBE0F900FBE0F9041
:101CC0001F9018951F920F920FB60F9211240BB60A
:101CD0000F922F933F934F935F936F937F938F93C5
:101CE0009F93AF93BF93EF93FF93E091EC03F09139
:101CF000ED03309709F01995FF91EF91BF91AF91E6
:101D00009F918F917F916F915F914F913F912F9113
:101D10000F900BBE0F900FBE0F901F9018951F9243
:101D20000F920FB60F9211240BB60F922F933F9381
:101D30004F935F936F937F938F939F93AF93BF93D3
:101D4000EF93FF93E091EA03F091EB03309709F0F2
:101D50001995FF91EF91BF91AF919F918F917F91D5
:101D60006F915F914F913F912F910F900BBE0F900C
:101D70000FBE0F901F9018951F920F920FB60F92E3
:101D800011240BB60F922F933F934F935F936F9352
:101D90007F938F939F93AF93BF93EF93FF93E091C4
:101DA000E803F091E903309709F01995FF91EF915D
:101DB000BF91AF919F918F917F916F915F914F9163
:101DC0003F912F910F900BBE0F900FBE0F901F9061
:101DD00018951F920F920FB60F9211240BB60F9207
:101DE0002F933F934F935F936F937F938F939F9323
:101DF000AF93BF93EF93FF93E091E603F091E70376
:101E0000309709F01995FF91EF91BF91AF919F9194
:101E10008F917F916F915F914F913F912F910F9093
:101E20000BBE0F900FBE0F901F9018951F920F9230
:101E30000FB60F9211240BB60F922F933F934F932F
:101E40005F936F937F938F939F93AF93BF93EF9322
:101E5000FF93E091E403F091E503309709F01995C1
:101E6000FF91EF91BF91AF919F918F917F916F9172
:101E70005F914F913F912F910F900BBE0F900FBE2E
:101E80000F901F9018951F920F920FB60F9211246A
:101E90000BB60F922F933F934F935F936F937F9364
:101EA0008F939F93AF93BF93EF93FF93E091E203E0
:101EB000F091E303309709F01995FF91EF91BF91ED
:101EC000AF919F918F917F916F915F914F913F91D2
:101ED0002F910F900BBE0F900FBE0F901F90189573
:101EE0001F920F920FB60F9211240BB60F922F93E1
:101EF0003F934F935F936F937F938F939F93AF9392
:101F0000BF93EF93FF93E091E003F091E1033097EB
:101F100009F01995FF91EF91BF91AF919F918F912A
:101F20007F916F915F914F913F912F910F900BBED9
:101F30000F900FBE0F901F9018951F920F920FB623
:101F40000F9211240BB60F922F933F934F935F93F1
:101F50006F937F938F939F93AF93BF93EF93FF9371
:101F6000E091DE03F091DF03309709F01995FF91BE
:101F7000EF91BF91AF919F918F917F916F915F9101
:101F80004F913F912F910F900BBE0F900FBE0F906E
:101F90001F9018951F920F920FB60F9211240BB637
:101FA0000F922F933F934F935F936F937F938F93F2
:101FB0009F93AF93BF93EF93FF93E091DC03F09176
:101FC000DD03309709F01995FF91EF91BF91AF9123
:101FD0009F918F917F916F915F914F913F912F9141
:101FE0000F900BBE0F900FBE0F901F9018951F9271
:101FF0000F920FB60F9211240BB60F922F933F93AF
:102000004F935F936F937F938F939F93AF93BF9300
:10201000EF93FF93E091DA03F091DB03309709F03F
:102020001995FF91EF91BF91AF919F918F917F9102
:102030006F915F914F913F912F910F900BBE0F9039
:102040000FBE0F901F9018951F920F920FB60F9210
:1020500011240BB60F922F933F934F935F936F937F
:102060007F938F939F93AF93BF93EF93FF93E091F1
:10207000D803F091D903309709F01995FF91EF91AA
:10208000BF91AF919F918F917F916F915F914F9190
:102090003F912F910F900BBE0F900FBE0F901F908E
:1020A00018951F920F920FB60F9211240BB60F9234
:1020B0002F933F934F935F936F937F938F939F9350
:1020C000AF93BF93EF93FF93E091D603F091D703C3
:1020D000309709F01995FF91EF91BF91AF919F91C2
:1020E0008F917F916F915F914F913F912F910F90C1
:1020F0000BBE0F900FBE0F901F9018951F920F925E
:102100000FB60F9211240BB60F922F933F934F935C
:102110005F936F937F938F939F93AF93BF93EF934F
:10212000FF93E091D403F091D503309709F019950E
:10213000FF91EF91BF91AF919F918F917F916F919F
:102140005F914F913F912F910F900BBE0F900FBE5B
:102150000F901F9018951F93CF93DF931F92CDB7C9
:10216000DEB72FB72983F8941981009709F464C06A
:102170008837910549F461E080E00E94A60260E1A1
:1021800080E00E94A60258C0803C910529F462E0DC
:1021900080E00E94A60250C08C34910529F464E0CE
:1021A00080E00E94A60248C08038910529F468E0CA
:1021B00080E00E94A60240C08434910529F460E2C8
:1021C00080E00E94A60238C0803B910529F460E4BB
:1021D00080E00E94A60230C0883B910529F460E8A7
:1021E00080E00E94A60228C0883C910529F461E0A5
:1021F00081E00E94A60220C08039910529F468E0A0
:1022000081E00E94A60218C0803A910529F460E19D
:1022100081E00E94A60210C0803221E0920729F4DA
:1022200060E281E00E94A60207C08334914021F45D
:1022300060E481E00E94A6021FBF0F90DF91CF9162
:102240001F9108951F93CF93DF931F92CDB7DEB7F1
:102250002FB72983F8941981009709F464C088374F
:10226000910549F461E080E00E94BE0260E180E0F7
:102270000E94BE0258C0803C910529F462E080E0D3
:102280000E94BE0250C08C34910529F464E080E0C5
:102290000E94BE0248C08038910529F468E080E0C1
:1022A0000E94BE0240C08434910529F460E280E0BF
:1022B0000E94BE0238C0803B910529F460E480E0B2
:1022C0000E94BE0230C0883B910529F460E880E09E
:1022D0000E94BE0228C0883C910529F461E081E09B
:1022E0000E94BE0220C08039910529F468E081E097
:1022F0000E94BE0218C0803A910529F460E181E095
:102300000E94BE0210C0803221E0920729F460E2F0
:1023100081E00E94BE0207C08334914021F460E452
:1023200081E00E94BE021FBF0F90DF91CF911F91ED
:1023300008958038910529F47093F3036093F203B4
:1023400008958039910529F47093EB036093EA03B3
:102350000895803A910529F47093E3036093E203B2
:1023600008958032914021F47093DB036093DA0387
:1023700008958038910529F47093F1036093F00378
:1023800008958039910529F47093E9036093E80377
:102390000895803A910529F47093E1036093E00376
:1023A00008958032914021F47093D9036093D8034B
:1023B00008950E9440020E948A020E947B040E94AB
:1023C000D8060E94E601F9CF0C943B020895CF9302
:1023D000DF93EC010E94E70189819A810E94A704A2
:1023E000DF91CF910895DB018F939F9349D0BF91E7
:1023F000AF91A29F800D911DA39F900DB29F900D54
:1024000011240895AA1BBB1B51E107C0AA1FBB1FC3
:10241000A617B70710F0A61BB70B881F991F5A9570
:10242000A9F780959095BC01CD01089597FB072EE3
:1024300016F4009406D077FD08D0E4DF07FC05D041
:102440003EF4909581959F4F0895709561957F4FCB
:102450000895EE0FFF1F881F8BBF0790F691E02DA8
:102460001994A29FB001B39FC001A39F700D811D5D
:102470001124911DB29F700D811D1124911D08958D
:10248000F0DFA59F900DB49F900DA49F800D911D2E
:10249000112408950024A7FD00942A0F301D401D2B
:1024A000501D601D701D801D901D08950024A7FD06
:1024B00000942A1730054005500560057005800519
:1024C000900508958F929F92AF92BF92CF92DF9224
:1024D000EF92FF92CF93DF93EC01688179818A813B
:1024E0009B81611571058105910521F464E279ED07
:1024F0008BE597E02DE133EF41E050E041D0490119
:102500005A019B01AC01A7EAB1E4BADF6B017C017F
:10251000ACEEB4EFA501940151D0DC01CB018C0DE0
:102520009D1DAE1DBF1DB7FF03C00197A109B04897
:1025300088839983AA83BB839F77DF91CF91FF9094
:10254000EF90DF90CF90BF90AF909F908F900895C5
:10255000B9CF80E092E0B6CFA0E0B0E08093000277
:1025600090930102A0930202B09303020895FB012D
:10257000DC0102C001900D9241505040D8F70895FF
:10258000052E97FB16F400940FD057FD05D01AD0F6
:1025900007FC02D046F408C050954095309521952F
:1025A0003F4F4F4F5F4F089590958095709561957F
:1025B0007F4F8F4F9F4F0895B7FF62CF61DF821B20
:1025C000930B0895A1E21A2EAA1BBB1BFD010DC09F
:1025D000AA1FBB1FEE1FFF1FA217B307E407F507D3
:1025E00020F0A21BB30BE40BF50B661F771F881FAF
:1025F000991F1A9469F760957095809590959B0145
:0C260000AC01BD01CF010895F894FFCF9C
:04260C0001000000C9
:00000001FF
